{
  "contractName": "FantasyEPLToken",
  "abi": [
    {
      "inputs": [
        {
          "internalType": "string",
          "name": "name_",
          "type": "string"
        },
        {
          "internalType": "string",
          "name": "symbol_",
          "type": "string"
        },
        {
          "internalType": "uint256",
          "name": "supply",
          "type": "uint256"
        }
      ],
      "stateMutability": "nonpayable",
      "type": "constructor"
    },
    {
      "anonymous": false,
      "inputs": [
        {
          "indexed": true,
          "internalType": "address",
          "name": "owner",
          "type": "address"
        },
        {
          "indexed": true,
          "internalType": "address",
          "name": "spender",
          "type": "address"
        },
        {
          "indexed": false,
          "internalType": "uint256",
          "name": "value",
          "type": "uint256"
        }
      ],
      "name": "Approval",
      "type": "event"
    },
    {
      "anonymous": false,
      "inputs": [
        {
          "indexed": true,
          "internalType": "address",
          "name": "from",
          "type": "address"
        },
        {
          "indexed": true,
          "internalType": "address",
          "name": "to",
          "type": "address"
        },
        {
          "indexed": false,
          "internalType": "uint256",
          "name": "value",
          "type": "uint256"
        }
      ],
      "name": "Transfer",
      "type": "event"
    },
    {
      "inputs": [
        {
          "internalType": "address",
          "name": "owner",
          "type": "address"
        },
        {
          "internalType": "address",
          "name": "spender",
          "type": "address"
        }
      ],
      "name": "allowance",
      "outputs": [
        {
          "internalType": "uint256",
          "name": "",
          "type": "uint256"
        }
      ],
      "stateMutability": "view",
      "type": "function",
      "constant": true
    },
    {
      "inputs": [
        {
          "internalType": "address",
          "name": "account",
          "type": "address"
        }
      ],
      "name": "balanceOf",
      "outputs": [
        {
          "internalType": "uint256",
          "name": "",
          "type": "uint256"
        }
      ],
      "stateMutability": "view",
      "type": "function",
      "constant": true
    },
    {
      "inputs": [],
      "name": "decimals",
      "outputs": [
        {
          "internalType": "uint8",
          "name": "",
          "type": "uint8"
        }
      ],
      "stateMutability": "view",
      "type": "function",
      "constant": true
    },
    {
      "inputs": [
        {
          "internalType": "address",
          "name": "spender",
          "type": "address"
        },
        {
          "internalType": "uint256",
          "name": "subtractedValue",
          "type": "uint256"
        }
      ],
      "name": "decreaseAllowance",
      "outputs": [
        {
          "internalType": "bool",
          "name": "",
          "type": "bool"
        }
      ],
      "stateMutability": "nonpayable",
      "type": "function"
    },
    {
      "inputs": [
        {
          "internalType": "address",
          "name": "spender",
          "type": "address"
        },
        {
          "internalType": "uint256",
          "name": "addedValue",
          "type": "uint256"
        }
      ],
      "name": "increaseAllowance",
      "outputs": [
        {
          "internalType": "bool",
          "name": "",
          "type": "bool"
        }
      ],
      "stateMutability": "nonpayable",
      "type": "function"
    },
    {
      "inputs": [],
      "name": "name",
      "outputs": [
        {
          "internalType": "string",
          "name": "",
          "type": "string"
        }
      ],
      "stateMutability": "view",
      "type": "function",
      "constant": true
    },
    {
      "inputs": [],
      "name": "symbol",
      "outputs": [
        {
          "internalType": "string",
          "name": "",
          "type": "string"
        }
      ],
      "stateMutability": "view",
      "type": "function",
      "constant": true
    },
    {
      "inputs": [],
      "name": "totalSupply",
      "outputs": [
        {
          "internalType": "uint256",
          "name": "",
          "type": "uint256"
        }
      ],
      "stateMutability": "view",
      "type": "function",
      "constant": true
    },
    {
      "inputs": [
        {
          "internalType": "address",
          "name": "to",
          "type": "address"
        },
        {
          "internalType": "uint256",
          "name": "amount",
          "type": "uint256"
        }
      ],
      "name": "transfer",
      "outputs": [
        {
          "internalType": "bool",
          "name": "",
          "type": "bool"
        }
      ],
      "stateMutability": "nonpayable",
      "type": "function"
    },
    {
      "inputs": [
        {
          "internalType": "address",
          "name": "from",
          "type": "address"
        },
        {
          "internalType": "address",
          "name": "to",
          "type": "address"
        },
        {
          "internalType": "uint256",
          "name": "amount",
          "type": "uint256"
        }
      ],
      "name": "transferFrom",
      "outputs": [
        {
          "internalType": "bool",
          "name": "",
          "type": "bool"
        }
      ],
      "stateMutability": "nonpayable",
      "type": "function"
    },
    {
      "inputs": [
        {
          "internalType": "address",
          "name": "spender",
          "type": "address"
        },
        {
          "internalType": "uint256",
          "name": "amount",
          "type": "uint256"
        }
      ],
      "name": "approve",
      "outputs": [
        {
          "internalType": "bool",
          "name": "",
          "type": "bool"
        }
      ],
      "stateMutability": "nonpayable",
      "type": "function"
    },
    {
      "inputs": [
        {
          "internalType": "address",
          "name": "_allowedMarketPlace",
          "type": "address"
        }
      ],
      "name": "setAllowedMarketPlace",
      "outputs": [],
      "stateMutability": "nonpayable",
      "type": "function"
    },
    {
      "inputs": [],
      "name": "getAllowedMarketPlace",
      "outputs": [
        {
          "internalType": "address",
          "name": "",
          "type": "address"
        }
      ],
      "stateMutability": "view",
      "type": "function",
      "constant": true
    }
  ],
  "bytecode": "0x60806040523480156200001157600080fd5b5060405162001d4938038062001d498339818101604052810190620000379190620003b8565b82828160039080519060200190620000519291906200027f565b5080600490805190602001906200006a9291906200027f565b50505033600560006101000a81548173ffffffffffffffffffffffffffffffffffffffff021916908373ffffffffffffffffffffffffffffffffffffffff160217905550620000ea33620000c3620000f360201b60201c565b600a620000d19190620005df565b83620000de91906200071c565b620000fc60201b60201c565b50505062000924565b60006012905090565b600073ffffffffffffffffffffffffffffffffffffffff168273ffffffffffffffffffffffffffffffffffffffff1614156200016f576040517f08c379a0000000000000000000000000000000000000000000000000000000008152600401620001669062000478565b60405180910390fd5b62000183600083836200027560201b60201c565b806002600082825462000197919062000527565b92505081905550806000808473ffffffffffffffffffffffffffffffffffffffff1673ffffffffffffffffffffffffffffffffffffffff1681526020019081526020016000206000828254620001ee919062000527565b925050819055508173ffffffffffffffffffffffffffffffffffffffff16600073ffffffffffffffffffffffffffffffffffffffff167fddf252ad1be2c89b69c2b068fc378daa952ba7f163c4a11628f55a4df523b3ef836040516200025591906200049a565b60405180910390a362000271600083836200027a60201b60201c565b5050565b505050565b505050565b8280546200028d90620007ca565b90600052602060002090601f016020900481019282620002b15760008555620002fd565b82601f10620002cc57805160ff1916838001178555620002fd565b82800160010185558215620002fd579182015b82811115620002fc578251825591602001919060010190620002df565b5b5090506200030c919062000310565b5090565b5b808211156200032b57600081600090555060010162000311565b5090565b6000620003466200034084620004e0565b620004b7565b9050828152602081018484840111156200035f57600080fd5b6200036c84828562000794565b509392505050565b600082601f8301126200038657600080fd5b8151620003988482602086016200032f565b91505092915050565b600081519050620003b2816200090a565b92915050565b600080600060608486031215620003ce57600080fd5b600084015167ffffffffffffffff811115620003e957600080fd5b620003f78682870162000374565b935050602084015167ffffffffffffffff8111156200041557600080fd5b620004238682870162000374565b92505060406200043686828701620003a1565b9150509250925092565b60006200044f601f8362000516565b91506200045c82620008e1565b602082019050919050565b62000472816200077d565b82525050565b60006020820190508181036000830152620004938162000440565b9050919050565b6000602082019050620004b1600083018462000467565b92915050565b6000620004c3620004d6565b9050620004d1828262000800565b919050565b6000604051905090565b600067ffffffffffffffff821115620004fe57620004fd62000894565b5b6200050982620008c3565b9050602081019050919050565b600082825260208201905092915050565b600062000534826200077d565b915062000541836200077d565b9250827fffffffffffffffffffffffffffffffffffffffffffffffffffffffffffffffff0382111562000579576200057862000836565b5b828201905092915050565b6000808291508390505b6001851115620005d657808604811115620005ae57620005ad62000836565b5b6001851615620005be5780820291505b8081029050620005ce85620008d4565b94506200058e565b94509492505050565b6000620005ec826200077d565b9150620005f98362000787565b9250620006287fffffffffffffffffffffffffffffffffffffffffffffffffffffffffffffffff848462000630565b905092915050565b60008262000642576001905062000715565b8162000652576000905062000715565b81600181146200066b57600281146200067657620006ac565b600191505062000715565b60ff8411156200068b576200068a62000836565b5b8360020a915084821115620006a557620006a462000836565b5b5062000715565b5060208310610133831016604e8410600b8410161715620006e65782820a905083811115620006e057620006df62000836565b5b62000715565b620006f5848484600162000584565b925090508184048111156200070f576200070e62000836565b5b81810290505b9392505050565b600062000729826200077d565b915062000736836200077d565b9250817fffffffffffffffffffffffffffffffffffffffffffffffffffffffffffffffff048311821515161562000772576200077162000836565b5b828202905092915050565b6000819050919050565b600060ff82169050919050565b60005b83811015620007b457808201518184015260208101905062000797565b83811115620007c4576000848401525b50505050565b60006002820490506001821680620007e357607f821691505b60208210811415620007fa57620007f962000865565b5b50919050565b6200080b82620008c3565b810181811067ffffffffffffffff821117156200082d576200082c62000894565b5b80604052505050565b7f4e487b7100000000000000000000000000000000000000000000000000000000600052601160045260246000fd5b7f4e487b7100000000000000000000000000000000000000000000000000000000600052602260045260246000fd5b7f4e487b7100000000000000000000000000000000000000000000000000000000600052604160045260246000fd5b6000601f19601f8301169050919050565b60008160011c9050919050565b7f45524332303a206d696e7420746f20746865207a65726f206164647265737300600082015250565b62000915816200077d565b81146200092157600080fd5b50565b61141580620009346000396000f3fe608060405234801561001057600080fd5b50600436106100cf5760003560e01c806366eb3efb1161008c57806395d89b411161006657806395d89b4114610228578063a457c2d714610246578063a9059cbb14610276578063dd62ed3e146102a6576100cf565b806366eb3efb146101be57806370a08231146101da57806381ce2fa21461020a576100cf565b806306fdde03146100d4578063095ea7b3146100f257806318160ddd1461012257806323b872dd14610140578063313ce56714610170578063395093511461018e575b600080fd5b6100dc6102d6565b6040516100e99190610edb565b60405180910390f35b61010c60048036038101906101079190610cff565b610368565b6040516101199190610ec0565b60405180910390f35b61012a6103a1565b6040516101379190610fdd565b60405180910390f35b61015a60048036038101906101559190610cb0565b6103ab565b6040516101679190610ec0565b60405180910390f35b6101786103da565b6040516101859190610ff8565b60405180910390f35b6101a860048036038101906101a39190610cff565b6103e3565b6040516101b59190610ec0565b60405180910390f35b6101d860048036038101906101d39190610c4b565b61041a565b005b6101f460048036038101906101ef9190610c4b565b6104b8565b6040516102019190610fdd565b60405180910390f35b610212610500565b60405161021f9190610ea5565b60405180910390f35b610230610584565b60405161023d9190610edb565b60405180910390f35b610260600480360381019061025b9190610cff565b610616565b60405161026d9190610ec0565b60405180910390f35b610290600480360381019061028b9190610cff565b61068d565b60405161029d9190610ec0565b60405180910390f35b6102c060048036038101906102bb9190610c74565b6106b0565b6040516102cd9190610fdd565b60405180910390f35b6060600380546102e59061110d565b80601f01602080910402602001604051908101604052809291908181526020018280546103119061110d565b801561035e5780601f106103335761010080835404028352916020019161035e565b820191906000526020600020905b81548152906001019060200180831161034157829003601f168201915b5050505050905090565b600061039783600660009054906101000a900473ffffffffffffffffffffffffffffffffffffffff1684610737565b6001905092915050565b6000600254905090565b6000806103b6610902565b90506103c385828561090a565b6103ce858585610996565b60019150509392505050565b60006012905090565b6000806103ee610902565b905061040f81858561040085896106b0565b61040a919061102f565b610737565b600191505092915050565b600560009054906101000a900473ffffffffffffffffffffffffffffffffffffffff1673ffffffffffffffffffffffffffffffffffffffff163373ffffffffffffffffffffffffffffffffffffffff161461047457600080fd5b80600660006101000a81548173ffffffffffffffffffffffffffffffffffffffff021916908373ffffffffffffffffffffffffffffffffffffffff16021790555050565b60008060008373ffffffffffffffffffffffffffffffffffffffff1673ffffffffffffffffffffffffffffffffffffffff168152602001908152602001600020549050919050565b6000600660009054906101000a900473ffffffffffffffffffffffffffffffffffffffff1673ffffffffffffffffffffffffffffffffffffffff163373ffffffffffffffffffffffffffffffffffffffff161461055c57600080fd5b600660009054906101000a900473ffffffffffffffffffffffffffffffffffffffff16905090565b6060600480546105939061110d565b80601f01602080910402602001604051908101604052809291908181526020018280546105bf9061110d565b801561060c5780601f106105e15761010080835404028352916020019161060c565b820191906000526020600020905b8154815290600101906020018083116105ef57829003601f168201915b5050505050905090565b600080610621610902565b9050600061062f82866106b0565b905083811015610674576040517f08c379a000000000000000000000000000000000000000000000000000000000815260040161066b90610fbd565b60405180910390fd5b6106818286868403610737565b60019250505092915050565b600080610698610902565b90506106a5818585610996565b600191505092915050565b6000600160008473ffffffffffffffffffffffffffffffffffffffff1673ffffffffffffffffffffffffffffffffffffffff16815260200190815260200160002060008373ffffffffffffffffffffffffffffffffffffffff1673ffffffffffffffffffffffffffffffffffffffff16815260200190815260200160002054905092915050565b600073ffffffffffffffffffffffffffffffffffffffff168373ffffffffffffffffffffffffffffffffffffffff1614156107a7576040517f08c379a000000000000000000000000000000000000000000000000000000000815260040161079e90610f9d565b60405180910390fd5b600073ffffffffffffffffffffffffffffffffffffffff168273ffffffffffffffffffffffffffffffffffffffff161415610817576040517f08c379a000000000000000000000000000000000000000000000000000000000815260040161080e90610f1d565b60405180910390fd5b80600160008573ffffffffffffffffffffffffffffffffffffffff1673ffffffffffffffffffffffffffffffffffffffff16815260200190815260200160002060008473ffffffffffffffffffffffffffffffffffffffff1673ffffffffffffffffffffffffffffffffffffffff168152602001908152602001600020819055508173ffffffffffffffffffffffffffffffffffffffff168373ffffffffffffffffffffffffffffffffffffffff167f8c5be1e5ebec7d5bd14f71427d1e84f3dd0314c0f7b2291e5b200ac8c7c3b925836040516108f59190610fdd565b60405180910390a3505050565b600033905090565b600061091684846106b0565b90507fffffffffffffffffffffffffffffffffffffffffffffffffffffffffffffffff81146109905781811015610982576040517f08c379a000000000000000000000000000000000000000000000000000000000815260040161097990610f3d565b60405180910390fd5b61098f8484848403610737565b5b50505050565b600073ffffffffffffffffffffffffffffffffffffffff168373ffffffffffffffffffffffffffffffffffffffff161415610a06576040517f08c379a00000000000000000000000000000000000000000000000000000000081526004016109fd90610f7d565b60405180910390fd5b600073ffffffffffffffffffffffffffffffffffffffff168273ffffffffffffffffffffffffffffffffffffffff161415610a76576040517f08c379a0000000000000000000000000000000000000000000000000000000008152600401610a6d90610efd565b60405180910390fd5b610a81838383610c17565b60008060008573ffffffffffffffffffffffffffffffffffffffff1673ffffffffffffffffffffffffffffffffffffffff16815260200190815260200160002054905081811015610b07576040517f08c379a0000000000000000000000000000000000000000000000000000000008152600401610afe90610f5d565b60405180910390fd5b8181036000808673ffffffffffffffffffffffffffffffffffffffff1673ffffffffffffffffffffffffffffffffffffffff16815260200190815260200160002081905550816000808573ffffffffffffffffffffffffffffffffffffffff1673ffffffffffffffffffffffffffffffffffffffff1681526020019081526020016000206000828254610b9a919061102f565b925050819055508273ffffffffffffffffffffffffffffffffffffffff168473ffffffffffffffffffffffffffffffffffffffff167fddf252ad1be2c89b69c2b068fc378daa952ba7f163c4a11628f55a4df523b3ef84604051610bfe9190610fdd565b60405180910390a3610c11848484610c1c565b50505050565b505050565b505050565b600081359050610c30816113b1565b92915050565b600081359050610c45816113c8565b92915050565b600060208284031215610c5d57600080fd5b6000610c6b84828501610c21565b91505092915050565b60008060408385031215610c8757600080fd5b6000610c9585828601610c21565b9250506020610ca685828601610c21565b9150509250929050565b600080600060608486031215610cc557600080fd5b6000610cd386828701610c21565b9350506020610ce486828701610c21565b9250506040610cf586828701610c36565b9150509250925092565b60008060408385031215610d1257600080fd5b6000610d2085828601610c21565b9250506020610d3185828601610c36565b9150509250929050565b610d4481611085565b82525050565b610d5381611097565b82525050565b6000610d6482611013565b610d6e818561101e565b9350610d7e8185602086016110da565b610d878161119d565b840191505092915050565b6000610d9f60238361101e565b9150610daa826111ae565b604082019050919050565b6000610dc260228361101e565b9150610dcd826111fd565b604082019050919050565b6000610de5601d8361101e565b9150610df08261124c565b602082019050919050565b6000610e0860268361101e565b9150610e1382611275565b604082019050919050565b6000610e2b60258361101e565b9150610e36826112c4565b604082019050919050565b6000610e4e60248361101e565b9150610e5982611313565b604082019050919050565b6000610e7160258361101e565b9150610e7c82611362565b604082019050919050565b610e90816110c3565b82525050565b610e9f816110cd565b82525050565b6000602082019050610eba6000830184610d3b565b92915050565b6000602082019050610ed56000830184610d4a565b92915050565b60006020820190508181036000830152610ef58184610d59565b905092915050565b60006020820190508181036000830152610f1681610d92565b9050919050565b60006020820190508181036000830152610f3681610db5565b9050919050565b60006020820190508181036000830152610f5681610dd8565b9050919050565b60006020820190508181036000830152610f7681610dfb565b9050919050565b60006020820190508181036000830152610f9681610e1e565b9050919050565b60006020820190508181036000830152610fb681610e41565b9050919050565b60006020820190508181036000830152610fd681610e64565b9050919050565b6000602082019050610ff26000830184610e87565b92915050565b600060208201905061100d6000830184610e96565b92915050565b600081519050919050565b600082825260208201905092915050565b600061103a826110c3565b9150611045836110c3565b9250827fffffffffffffffffffffffffffffffffffffffffffffffffffffffffffffffff0382111561107a5761107961113f565b5b828201905092915050565b6000611090826110a3565b9050919050565b60008115159050919050565b600073ffffffffffffffffffffffffffffffffffffffff82169050919050565b6000819050919050565b600060ff82169050919050565b60005b838110156110f85780820151818401526020810190506110dd565b83811115611107576000848401525b50505050565b6000600282049050600182168061112557607f821691505b602082108114156111395761113861116e565b5b50919050565b7f4e487b7100000000000000000000000000000000000000000000000000000000600052601160045260246000fd5b7f4e487b7100000000000000000000000000000000000000000000000000000000600052602260045260246000fd5b6000601f19601f8301169050919050565b7f45524332303a207472616e7366657220746f20746865207a65726f206164647260008201527f6573730000000000000000000000000000000000000000000000000000000000602082015250565b7f45524332303a20617070726f766520746f20746865207a65726f20616464726560008201527f7373000000000000000000000000000000000000000000000000000000000000602082015250565b7f45524332303a20696e73756666696369656e7420616c6c6f77616e6365000000600082015250565b7f45524332303a207472616e7366657220616d6f756e742065786365656473206260008201527f616c616e63650000000000000000000000000000000000000000000000000000602082015250565b7f45524332303a207472616e736665722066726f6d20746865207a65726f20616460008201527f6472657373000000000000000000000000000000000000000000000000000000602082015250565b7f45524332303a20617070726f76652066726f6d20746865207a65726f2061646460008201527f7265737300000000000000000000000000000000000000000000000000000000602082015250565b7f45524332303a2064656372656173656420616c6c6f77616e63652062656c6f7760008201527f207a65726f000000000000000000000000000000000000000000000000000000602082015250565b6113ba81611085565b81146113c557600080fd5b50565b6113d1816110c3565b81146113dc57600080fd5b5056fea2646970667358221220d3aa2a0d7caed58cfe82e354f8565e3888d64b121a6f1afc44420897912fe61664736f6c63430008030033",
  "immutableReferences": {},
  "source": "pragma solidity ^0.8.0;\n\nimport \"openzeppelin-solidity/contracts/token/ERC20/ERC20.sol\";\n\ncontract FantasyEPLToken is ERC20{\n    \n    address creator;\n\n    address allowedMarketPlace;\n\n    constructor(string memory name_, string memory symbol_, uint supply) ERC20(name_, symbol_) {\n       creator = msg.sender;\n       _mint(msg.sender, supply * (10 ** decimals()));\n    }\n\n    //Only MarketPlace\n    modifier onlyMarketPlace(){\n        require(msg.sender == allowedMarketPlace);\n        _;\n    }\n\n    //Only Owner\n    modifier onlyOwner(){\n        require(msg.sender == creator);\n        _;\n    }\n\n    function approve(address spender, uint256 amount) public virtual override returns (bool) {\n        //address owner = _msgSender();\n        _approve(spender, allowedMarketPlace, amount);\n        return true;\n    }\n\n    function setAllowedMarketPlace(address _allowedMarketPlace) public onlyOwner{\n        allowedMarketPlace = _allowedMarketPlace;\n    }\n    \n    function getAllowedMarketPlace() public view onlyMarketPlace returns(address){\n        return allowedMarketPlace;\n    }\n\n}   ",
  "sourcePath": "/home/sai/Downloads/FifaTransferMarket/fantasyLeague-contract/contracts/FantasyEPLToken.sol",
  "compiler": {
    "name": "solc",
    "version": "0.8.3+commit.8d00100c.Emscripten.clang"
  },
  "schemaVersion": "3.4.6",
  "updatedAt": "2022-05-08T16:53:17.971Z",
  "networkType": "ethereum",
  "devdoc": {
    "kind": "dev",
    "methods": {
      "allowance(address,address)": {
        "details": "See {IERC20-allowance}."
      },
      "approve(address,uint256)": {
        "details": "See {IERC20-approve}. NOTE: If `amount` is the maximum `uint256`, the allowance is not updated on `transferFrom`. This is semantically equivalent to an infinite approval. Requirements: - `spender` cannot be the zero address."
      },
      "balanceOf(address)": {
        "details": "See {IERC20-balanceOf}."
      },
      "decimals()": {
        "details": "Returns the number of decimals used to get its user representation. For example, if `decimals` equals `2`, a balance of `505` tokens should be displayed to a user as `5.05` (`505 / 10 ** 2`). Tokens usually opt for a value of 18, imitating the relationship between Ether and Wei. This is the value {ERC20} uses, unless this function is overridden; NOTE: This information is only used for _display_ purposes: it in no way affects any of the arithmetic of the contract, including {IERC20-balanceOf} and {IERC20-transfer}."
      },
      "decreaseAllowance(address,uint256)": {
        "details": "Atomically decreases the allowance granted to `spender` by the caller. This is an alternative to {approve} that can be used as a mitigation for problems described in {IERC20-approve}. Emits an {Approval} event indicating the updated allowance. Requirements: - `spender` cannot be the zero address. - `spender` must have allowance for the caller of at least `subtractedValue`."
      },
      "increaseAllowance(address,uint256)": {
        "details": "Atomically increases the allowance granted to `spender` by the caller. This is an alternative to {approve} that can be used as a mitigation for problems described in {IERC20-approve}. Emits an {Approval} event indicating the updated allowance. Requirements: - `spender` cannot be the zero address."
      },
      "name()": {
        "details": "Returns the name of the token."
      },
      "symbol()": {
        "details": "Returns the symbol of the token, usually a shorter version of the name."
      },
      "totalSupply()": {
        "details": "See {IERC20-totalSupply}."
      },
      "transfer(address,uint256)": {
        "details": "See {IERC20-transfer}. Requirements: - `to` cannot be the zero address. - the caller must have a balance of at least `amount`."
      },
      "transferFrom(address,address,uint256)": {
        "details": "See {IERC20-transferFrom}. Emits an {Approval} event indicating the updated allowance. This is not required by the EIP. See the note at the beginning of {ERC20}. NOTE: Does not update the allowance if the current allowance is the maximum `uint256`. Requirements: - `from` and `to` cannot be the zero address. - `from` must have a balance of at least `amount`. - the caller must have allowance for ``from``'s tokens of at least `amount`."
      }
    },
    "version": 1
  },
  "userdoc": {
    "kind": "user",
    "methods": {},
    "version": 1
  }
}