{
  "contractName": "FantasyLeague",
  "abi": [
    {
      "inputs": [
        {
          "internalType": "address",
          "name": "_token",
          "type": "address"
        }
      ],
      "stateMutability": "nonpayable",
      "type": "constructor"
    },
    {
      "inputs": [],
      "name": "playersCount",
      "outputs": [
        {
          "internalType": "uint256",
          "name": "",
          "type": "uint256"
        }
      ],
      "stateMutability": "view",
      "type": "function",
      "constant": true
    },
    {
      "inputs": [
        {
          "internalType": "address",
          "name": "",
          "type": "address"
        }
      ],
      "name": "teams",
      "outputs": [
        {
          "internalType": "uint256",
          "name": "id",
          "type": "uint256"
        },
        {
          "internalType": "string",
          "name": "name",
          "type": "string"
        }
      ],
      "stateMutability": "view",
      "type": "function",
      "constant": true
    },
    {
      "inputs": [],
      "name": "getOwner",
      "outputs": [
        {
          "internalType": "address",
          "name": "",
          "type": "address"
        }
      ],
      "stateMutability": "view",
      "type": "function",
      "constant": true
    },
    {
      "inputs": [],
      "name": "getAllowedMarketPlace",
      "outputs": [
        {
          "internalType": "address",
          "name": "",
          "type": "address"
        }
      ],
      "stateMutability": "view",
      "type": "function",
      "constant": true
    },
    {
      "inputs": [],
      "name": "getTokenBalance",
      "outputs": [
        {
          "internalType": "string",
          "name": "",
          "type": "string"
        }
      ],
      "stateMutability": "view",
      "type": "function",
      "constant": true
    },
    {
      "inputs": [
        {
          "internalType": "address",
          "name": "teamAddress",
          "type": "address"
        },
        {
          "internalType": "string",
          "name": "_name",
          "type": "string"
        }
      ],
      "name": "addTeam",
      "outputs": [],
      "stateMutability": "nonpayable",
      "type": "function"
    },
    {
      "inputs": [
        {
          "internalType": "address payable",
          "name": "teamAddress",
          "type": "address"
        },
        {
          "internalType": "uint256",
          "name": "playerID",
          "type": "uint256"
        }
      ],
      "name": "assignPlayersToTeam",
      "outputs": [],
      "stateMutability": "nonpayable",
      "type": "function"
    },
    {
      "inputs": [
        {
          "internalType": "string",
          "name": "name",
          "type": "string"
        },
        {
          "internalType": "uint256",
          "name": "price",
          "type": "uint256"
        },
        {
          "internalType": "bool",
          "name": "is_sellable",
          "type": "bool"
        }
      ],
      "name": "addPlayer",
      "outputs": [],
      "stateMutability": "nonpayable",
      "type": "function"
    },
    {
      "inputs": [
        {
          "internalType": "uint256",
          "name": "playerID",
          "type": "uint256"
        },
        {
          "internalType": "uint256",
          "name": "price",
          "type": "uint256"
        }
      ],
      "name": "setPlayerPrice",
      "outputs": [],
      "stateMutability": "nonpayable",
      "type": "function"
    },
    {
      "inputs": [
        {
          "internalType": "uint256",
          "name": "playerID",
          "type": "uint256"
        }
      ],
      "name": "togglePlayerSellable",
      "outputs": [],
      "stateMutability": "nonpayable",
      "type": "function"
    },
    {
      "inputs": [
        {
          "internalType": "address",
          "name": "to",
          "type": "address"
        },
        {
          "internalType": "uint256",
          "name": "amount",
          "type": "uint256"
        }
      ],
      "name": "sendToken",
      "outputs": [],
      "stateMutability": "nonpayable",
      "type": "function"
    },
    {
      "inputs": [
        {
          "internalType": "uint256",
          "name": "playerID",
          "type": "uint256"
        },
        {
          "internalType": "uint256",
          "name": "amount",
          "type": "uint256"
        }
      ],
      "name": "buyPlayer",
      "outputs": [],
      "stateMutability": "payable",
      "type": "function",
      "payable": true
    },
    {
      "inputs": [],
      "name": "getMyPlayersCount",
      "outputs": [
        {
          "internalType": "string",
          "name": "",
          "type": "string"
        }
      ],
      "stateMutability": "view",
      "type": "function",
      "constant": true
    },
    {
      "inputs": [
        {
          "internalType": "uint256",
          "name": "index",
          "type": "uint256"
        }
      ],
      "name": "getMyPlayer",
      "outputs": [
        {
          "internalType": "string",
          "name": "",
          "type": "string"
        },
        {
          "internalType": "string",
          "name": "",
          "type": "string"
        },
        {
          "internalType": "string",
          "name": "",
          "type": "string"
        },
        {
          "internalType": "bool",
          "name": "",
          "type": "bool"
        }
      ],
      "stateMutability": "view",
      "type": "function",
      "constant": true
    },
    {
      "inputs": [],
      "name": "getAllPlayersCount",
      "outputs": [
        {
          "internalType": "string",
          "name": "",
          "type": "string"
        }
      ],
      "stateMutability": "view",
      "type": "function",
      "constant": true
    },
    {
      "inputs": [
        {
          "internalType": "uint256",
          "name": "index",
          "type": "uint256"
        }
      ],
      "name": "getPlayer",
      "outputs": [
        {
          "internalType": "string",
          "name": "",
          "type": "string"
        },
        {
          "internalType": "string",
          "name": "",
          "type": "string"
        },
        {
          "internalType": "string",
          "name": "",
          "type": "string"
        },
        {
          "internalType": "bool",
          "name": "",
          "type": "bool"
        },
        {
          "internalType": "address",
          "name": "",
          "type": "address"
        }
      ],
      "stateMutability": "view",
      "type": "function",
      "constant": true
    },
    {
      "inputs": [],
      "name": "checkIfTeamExist",
      "outputs": [
        {
          "internalType": "bool",
          "name": "",
          "type": "bool"
        }
      ],
      "stateMutability": "view",
      "type": "function",
      "constant": true
    },
    {
      "inputs": [],
      "name": "getMyTeamDetails",
      "outputs": [
        {
          "internalType": "uint256",
          "name": "",
          "type": "uint256"
        },
        {
          "internalType": "string",
          "name": "",
          "type": "string"
        }
      ],
      "stateMutability": "view",
      "type": "function",
      "constant": true
    }
  ],
  "bytecode": "0x6080604052600060025560006004553480156200001b57600080fd5b506040516200313e3803806200313e833981810160405281019062000041919062000375565b336000806101000a81548173ffffffffffffffffffffffffffffffffffffffff021916908373ffffffffffffffffffffffffffffffffffffffff160217905550620000e860008054906101000a900473ffffffffffffffffffffffffffffffffffffffff166040518060400160405280600581526020017f5465616d310000000000000000000000000000000000000000000000000000008152506200013060201b60201c565b80600160006101000a81548173ffffffffffffffffffffffffffffffffffffffff021916908373ffffffffffffffffffffffffffffffffffffffff16021790555050620004ea565b60008054906101000a900473ffffffffffffffffffffffffffffffffffffffff1673ffffffffffffffffffffffffffffffffffffffff163373ffffffffffffffffffffffffffffffffffffffff16146200018957600080fd5b606060405180606001604052806001600254620001a79190620003a1565b815260200183815260200182815250600360008573ffffffffffffffffffffffffffffffffffffffff1673ffffffffffffffffffffffffffffffffffffffff1681526020019081526020016000206000820151816000015560208201518160010190805190602001906200021d9291906200025c565b5060408201518160020190805190602001906200023c929190620002ed565b509050506001600254620002519190620003a1565b600281905550505050565b8280546200026a906200043c565b90600052602060002090601f0160209004810192826200028e5760008555620002da565b82601f10620002a957805160ff1916838001178555620002da565b82800160010185558215620002da579182015b82811115620002d9578251825591602001919060010190620002bc565b5b509050620002e991906200033f565b5090565b8280548282559060005260206000209081019282156200032c579160200282015b828111156200032b5782518255916020019190600101906200030e565b5b5090506200033b91906200033f565b5090565b5b808211156200035a57600081600090555060010162000340565b5090565b6000815190506200036f81620004d0565b92915050565b6000602082840312156200038857600080fd5b600062000398848285016200035e565b91505092915050565b6000620003ae8262000432565b9150620003bb8362000432565b9250827fffffffffffffffffffffffffffffffffffffffffffffffffffffffffffffffff03821115620003f357620003f262000472565b5b828201905092915050565b60006200040b8262000412565b9050919050565b600073ffffffffffffffffffffffffffffffffffffffff82169050919050565b6000819050919050565b600060028204905060018216806200045557607f821691505b602082108114156200046c576200046b620004a1565b5b50919050565b7f4e487b7100000000000000000000000000000000000000000000000000000000600052601160045260246000fd5b7f4e487b7100000000000000000000000000000000000000000000000000000000600052602260045260246000fd5b620004db81620003fe565b8114620004e757600080fd5b50565b612c4480620004fa6000396000f3fe6080604052600436106101085760003560e01c8063a3f67d6d11610095578063c4f6203111610064578063c4f6203114610350578063d182965114610379578063da73630e146103a2578063e55ae4e8146103cb578063f80b82f71461040c57610108565b8063a3f67d6d1461027e578063af94dc19146102a9578063c03cc314146102d2578063c45832401461031257610108565b8063773adb0f116100dc578063773adb0f146101a957806381ce2fa2146101d457806382b2e257146101ff578063893d20e81461022a578063937f568c1461025557610108565b806259a98c1461010d5780632c880f8114610138578063412664ae1461016457806370122e4f1461018d575b600080fd5b34801561011957600080fd5b50610122610437565b60405161012f9190612487565b60405180910390f35b34801561014457600080fd5b5061014d610494565b60405161015b9291906126a1565b60405180910390f35b34801561017057600080fd5b5061018b60048036038101906101869190612134565b6105f6565b005b6101a760048036038101906101a29190612252565b61075c565b005b3480156101b557600080fd5b506101be610986565b6040516101cb91906124a2565b60405180910390f35b3480156101e057600080fd5b506101e96109db565b6040516101f6919061240c565b60405180910390f35b34801561020b57600080fd5b50610214610a82565b60405161022191906124a2565b60405180910390f35b34801561023657600080fd5b5061023f610b3c565b60405161024c919061240c565b60405180910390f35b34801561026157600080fd5b5061027c60048036038101906102779190612199565b610b65565b005b34801561028a57600080fd5b50610293610d14565b6040516102a09190612686565b60405180910390f35b3480156102b557600080fd5b506102d060048036038101906102cb9190612200565b610d1a565b005b3480156102de57600080fd5b506102f960048036038101906102f49190612200565b610d79565b60405161030994939291906124c4565b60405180910390f35b34801561031e57600080fd5b5061033960048036038101906103349190612052565b610fc2565b6040516103479291906126a1565b60405180910390f35b34801561035c57600080fd5b5061037760048036038101906103729190612252565b61106e565b005b34801561038557600080fd5b506103a0600480360381019061039b91906120a4565b611097565b005b3480156103ae57600080fd5b506103c960048036038101906103c491906120e0565b6111ba565b005b3480156103d757600080fd5b506103f260048036038101906103ed9190612200565b6112dd565b60405161040395949392919061251e565b60405180910390f35b34801561041857600080fd5b5061042161145b565b60405161042e91906124a2565b60405180910390f35b600080600360003373ffffffffffffffffffffffffffffffffffffffff1673ffffffffffffffffffffffffffffffffffffffff16815260200190815260200160002060000154141561048c5760009050610491565b600190505b90565b600060606104a13361146d565b6000600360003373ffffffffffffffffffffffffffffffffffffffff1673ffffffffffffffffffffffffffffffffffffffff168152602001908152602001600020604051806060016040529081600082015481526020016001820180546105079061289a565b80601f01602080910402602001604051908101604052809291908181526020018280546105339061289a565b80156105805780601f1061055557610100808354040283529160200191610580565b820191906000526020600020905b81548152906001019060200180831161056357829003601f168201915b50505050508152602001600282018054806020026020016040519081016040528092919081815260200182805480156105d857602002820191906000526020600020905b8154815260200190600101908083116105c4575b50505050508152505090508060000151816020015192509250509091565b600160009054906101000a900473ffffffffffffffffffffffffffffffffffffffff1673ffffffffffffffffffffffffffffffffffffffff1663095ea7b333836040518363ffffffff1660e01b815260040161065392919061245e565b602060405180830381600087803b15801561066d57600080fd5b505af1158015610681573d6000803e3d6000fd5b505050506040513d601f19601f820116820180604052508101906106a59190612170565b50600160009054906101000a900473ffffffffffffffffffffffffffffffffffffffff1673ffffffffffffffffffffffffffffffffffffffff166323b872dd3384846040518463ffffffff1660e01b815260040161070593929190612427565b602060405180830381600087803b15801561071f57600080fd5b505af1158015610733573d6000803e3d6000fd5b505050506040513d601f19601f820116820180604052508101906107579190612170565b505050565b610765826114f6565b61076e8261153d565b610777826115eb565b506000600560008481526020019081526020016000206040518060a0016040529081600082015481526020016001820180546107b29061289a565b80601f01602080910402602001604051908101604052809291908181526020018280546107de9061289a565b801561082b5780601f106108005761010080835404028352916020019161082b565b820191906000526020600020905b81548152906001019060200180831161080e57829003601f168201915b50505050508152602001600282015481526020016003820160009054906101000a900460ff161515151581526020016003820160019054906101000a900473ffffffffffffffffffffffffffffffffffffffff1673ffffffffffffffffffffffffffffffffffffffff1673ffffffffffffffffffffffffffffffffffffffff16815250509050600081608001519050600082604001519050808414610905576040517f08c379a00000000000000000000000000000000000000000000000000000000081526004016108fc906125e6565b60405180910390fd5b61090e84611684565b61091882856105f6565b60008054906101000a900473ffffffffffffffffffffffffffffffffffffffff1673ffffffffffffffffffffffffffffffffffffffff168273ffffffffffffffffffffffffffffffffffffffff1614610976576109758583611774565b5b61097f85611979565b5050505050565b60606109d6600360003373ffffffffffffffffffffffffffffffffffffffff1673ffffffffffffffffffffffffffffffffffffffff16815260200190815260200160002060020180549050611a40565b905090565b6000600160009054906101000a900473ffffffffffffffffffffffffffffffffffffffff1673ffffffffffffffffffffffffffffffffffffffff166381ce2fa26040518163ffffffff1660e01b815260040160206040518083038186803b158015610a4557600080fd5b505afa158015610a59573d6000803e3d6000fd5b505050506040513d601f19601f82011682018060405250810190610a7d919061207b565b905090565b6060610b37600160009054906101000a900473ffffffffffffffffffffffffffffffffffffffff1673ffffffffffffffffffffffffffffffffffffffff166370a08231336040518263ffffffff1660e01b8152600401610ae2919061240c565b60206040518083038186803b158015610afa57600080fd5b505afa158015610b0e573d6000803e3d6000fd5b505050506040513d601f19601f82011682018060405250810190610b329190612229565b611a40565b905090565b60008060009054906101000a900473ffffffffffffffffffffffffffffffffffffffff16905090565b60008054906101000a900473ffffffffffffffffffffffffffffffffffffffff1673ffffffffffffffffffffffffffffffffffffffff163373ffffffffffffffffffffffffffffffffffffffff1614610bbd57600080fd5b6040518060a001604052806004548152602001848152602001838152602001821515815260200160008054906101000a900473ffffffffffffffffffffffffffffffffffffffff1673ffffffffffffffffffffffffffffffffffffffff16815250600560006004548152602001908152602001600020600082015181600001556020820151816001019080519060200190610c59929190611e67565b506040820151816002015560608201518160030160006101000a81548160ff02191690831515021790555060808201518160030160016101000a81548173ffffffffffffffffffffffffffffffffffffffff021916908373ffffffffffffffffffffffffffffffffffffffff160217905550905050610cfa60008054906101000a900473ffffffffffffffffffffffffffffffffffffffff16600454611097565b6001600454610d099190612743565b600481905550505050565b60045481565b610d243382611bed565b6005600082815260200190815260200160002060030160009054906101000a900460ff16156005600083815260200190815260200160002060030160006101000a81548160ff02191690831515021790555050565b60608060606000610d893361146d565b610d9285611dfd565b610dd1576040517f08c379a0000000000000000000000000000000000000000000000000000000008152600401610dc890612626565b60405180910390fd5b600060056000600360003373ffffffffffffffffffffffffffffffffffffffff1673ffffffffffffffffffffffffffffffffffffffff1681526020019081526020016000206002018881548110610e51577f4e487b7100000000000000000000000000000000000000000000000000000000600052603260045260246000fd5b906000526020600020015481526020019081526020016000206040518060a001604052908160008201548152602001600182018054610e8f9061289a565b80601f0160208091040260200160405190810160405280929190818152602001828054610ebb9061289a565b8015610f085780601f10610edd57610100808354040283529160200191610f08565b820191906000526020600020905b815481529060010190602001808311610eeb57829003601f168201915b50505050508152602001600282015481526020016003820160009054906101000a900460ff161515151581526020016003820160019054906101000a900473ffffffffffffffffffffffffffffffffffffffff1673ffffffffffffffffffffffffffffffffffffffff1673ffffffffffffffffffffffffffffffffffffffff16815250509050610f9b8160000151611a40565b8160200151610fad8360400151611a40565b83606001519450945094509450509193509193565b6003602052806000526040600020600091509050806000015490806001018054610feb9061289a565b80601f01602080910402602001604051908101604052809291908181526020018280546110179061289a565b80156110645780601f1061103957610100808354040283529160200191611064565b820191906000526020600020905b81548152906001019060200180831161104757829003601f168201915b5050505050905082565b6110783383611bed565b8060056000848152602001908152602001600020600201819055505050565b60008054906101000a900473ffffffffffffffffffffffffffffffffffffffff1673ffffffffffffffffffffffffffffffffffffffff163373ffffffffffffffffffffffffffffffffffffffff16146110ef57600080fd5b6110f88261146d565b600360008373ffffffffffffffffffffffffffffffffffffffff1673ffffffffffffffffffffffffffffffffffffffff168152602001908152602001600020600201819080600181540180825580915050600190039060005260206000200160009091909190915055816005600083815260200190815260200160002060030160016101000a81548173ffffffffffffffffffffffffffffffffffffffff021916908373ffffffffffffffffffffffffffffffffffffffff1602179055505050565b60008054906101000a900473ffffffffffffffffffffffffffffffffffffffff1673ffffffffffffffffffffffffffffffffffffffff163373ffffffffffffffffffffffffffffffffffffffff161461121257600080fd5b60606040518060600160405280600160025461122e9190612743565b815260200183815260200182815250600360008573ffffffffffffffffffffffffffffffffffffffff1673ffffffffffffffffffffffffffffffffffffffff1681526020019081526020016000206000820151816000015560208201518160010190805190602001906112a2929190611e67565b5060408201518160020190805190602001906112bf929190611eed565b5090505060016002546112d29190612743565b600281905550505050565b60608060606000806000600560008881526020019081526020016000206040518060a00160405290816000820154815260200160018201805461131f9061289a565b80601f016020809104026020016040519081016040528092919081815260200182805461134b9061289a565b80156113985780601f1061136d57610100808354040283529160200191611398565b820191906000526020600020905b81548152906001019060200180831161137b57829003601f168201915b50505050508152602001600282015481526020016003820160009054906101000a900460ff161515151581526020016003820160019054906101000a900473ffffffffffffffffffffffffffffffffffffffff1673ffffffffffffffffffffffffffffffffffffffff1673ffffffffffffffffffffffffffffffffffffffff1681525050905061142b8160000151611a40565b816020015161143d8360400151611a40565b83606001518460800151955095509550955095505091939590929450565b6060611468600454611a40565b905090565b6000600360008373ffffffffffffffffffffffffffffffffffffffff1673ffffffffffffffffffffffffffffffffffffffff1681526020019081526020016000206000015414156114f3576040517f08c379a00000000000000000000000000000000000000000000000000000000081526004016114ea90612606565b60405180910390fd5b50565b600454811061153a576040517f08c379a0000000000000000000000000000000000000000000000000000000008152600401611531906125a6565b60405180910390fd5b50565b60006005600083815260200190815260200160002090503373ffffffffffffffffffffffffffffffffffffffff168160030160019054906101000a900473ffffffffffffffffffffffffffffffffffffffff1673ffffffffffffffffffffffffffffffffffffffff1614156115e7576040517f08c379a00000000000000000000000000000000000000000000000000000000081526004016115de90612646565b60405180910390fd5b5050565b60006115f6826114f6565b6005600083815260200190815260200160002060030160009054906101000a900460ff16611659576040517f08c379a0000000000000000000000000000000000000000000000000000000008152600401611650906125c6565b60405180910390fd5b6005600083815260200190815260200160002060030160009054906101000a900460ff169050919050565b600160009054906101000a900473ffffffffffffffffffffffffffffffffffffffff1673ffffffffffffffffffffffffffffffffffffffff166370a08231336040518263ffffffff1660e01b81526004016116df919061240c565b60206040518083038186803b1580156116f757600080fd5b505afa15801561170b573d6000803e3d6000fd5b505050506040513d601f19601f8201168201806040525081019061172f9190612229565b811115611771576040517f08c379a000000000000000000000000000000000000000000000000000000000815260040161176890612666565b60405180910390fd5b50565b6000600360008373ffffffffffffffffffffffffffffffffffffffff1673ffffffffffffffffffffffffffffffffffffffff16815260200190815260200160002060020180548060200260200160405190810160405280929190818152602001828054801561180257602002820191906000526020600020905b8154815260200190600101908083116117ee575b50505050509050606080600360008573ffffffffffffffffffffffffffffffffffffffff1673ffffffffffffffffffffffffffffffffffffffff1681526020019081526020016000206002019080519060200190611861929190611eed565b5060005b825181101561197257848382815181106118a8577f4e487b7100000000000000000000000000000000000000000000000000000000600052603260045260246000fd5b60200260200101511461195f57600360008573ffffffffffffffffffffffffffffffffffffffff1673ffffffffffffffffffffffffffffffffffffffff168152602001908152602001600020600201838281518110611930577f4e487b7100000000000000000000000000000000000000000000000000000000600052603260045260246000fd5b602002602001015190806001815401808255809150506001900390600052602060002001600090919091909150555b808061196a906128fd565b915050611865565b5050505050565b6000600560008381526020019081526020016000209050338160030160016101000a81548173ffffffffffffffffffffffffffffffffffffffff021916908373ffffffffffffffffffffffffffffffffffffffff160217905550600360003373ffffffffffffffffffffffffffffffffffffffff1673ffffffffffffffffffffffffffffffffffffffff1681526020019081526020016000206002018290806001815401808255809150506001900390600052602060002001600090919091909150555050565b60606000821415611a88576040518060400160405280600181526020017f30000000000000000000000000000000000000000000000000000000000000008152509050611be8565b600082905060005b60008214611aba578080611aa3906128fd565b915050600a82611ab39190612799565b9150611a90565b60008167ffffffffffffffff811115611afc577f4e487b7100000000000000000000000000000000000000000000000000000000600052604160045260246000fd5b6040519080825280601f01601f191660200182016040528015611b2e5781602001600182028036833780820191505090505b5090505b60008514611be157600182611b4791906127ca565b9150600a85611b569190612946565b6030611b629190612743565b60f81b818381518110611b9e577f4e487b7100000000000000000000000000000000000000000000000000000000600052603260045260246000fd5b60200101907effffffffffffffffffffffffffffffffffffffffffffffffffffffffffffff1916908160001a905350600a85611bda9190612799565b9450611b32565b8093505050505b919050565b611bf68261146d565b611bff816114f6565b6000600360008473ffffffffffffffffffffffffffffffffffffffff1673ffffffffffffffffffffffffffffffffffffffff16815260200190815260200160002060405180606001604052908160008201548152602001600182018054611c659061289a565b80601f0160208091040260200160405190810160405280929190818152602001828054611c919061289a565b8015611cde5780601f10611cb357610100808354040283529160200191611cde565b820191906000526020600020905b815481529060010190602001808311611cc157829003601f168201915b5050505050815260200160028201805480602002602001604051908101604052809291908181526020018280548015611d3657602002820191906000526020600020905b815481526020019060010190808311611d22575b50505050508152505090506000805b826040015151811015611db6578383604001518281518110611d90577f4e487b7100000000000000000000000000000000000000000000000000000000600052603260045260246000fd5b60200260200101511415611da357600191505b8080611dae906128fd565b915050611d45565b5080611df7576040517f08c379a0000000000000000000000000000000000000000000000000000000008152600401611dee90612586565b60405180910390fd5b50505050565b6000611e083361146d565b600360003373ffffffffffffffffffffffffffffffffffffffff1673ffffffffffffffffffffffffffffffffffffffff168152602001908152602001600020600201805490508210611e5d5760009050611e62565b600190505b919050565b828054611e739061289a565b90600052602060002090601f016020900481019282611e955760008555611edc565b82601f10611eae57805160ff1916838001178555611edc565b82800160010185558215611edc579182015b82811115611edb578251825591602001919060010190611ec0565b5b509050611ee99190611f3a565b5090565b828054828255906000526020600020908101928215611f29579160200282015b82811115611f28578251825591602001919060010190611f0d565b5b509050611f369190611f3a565b5090565b5b80821115611f53576000816000905550600101611f3b565b5090565b6000611f6a611f65846126f6565b6126d1565b905082815260208101848484011115611f8257600080fd5b611f8d848285612858565b509392505050565b600081359050611fa481612bb2565b92915050565b600081519050611fb981612bb2565b92915050565b600081359050611fce81612bc9565b92915050565b600081359050611fe381612be0565b92915050565b600081519050611ff881612be0565b92915050565b600082601f83011261200f57600080fd5b813561201f848260208601611f57565b91505092915050565b60008135905061203781612bf7565b92915050565b60008151905061204c81612bf7565b92915050565b60006020828403121561206457600080fd5b600061207284828501611f95565b91505092915050565b60006020828403121561208d57600080fd5b600061209b84828501611faa565b91505092915050565b600080604083850312156120b757600080fd5b60006120c585828601611fbf565b92505060206120d685828601612028565b9150509250929050565b600080604083850312156120f357600080fd5b600061210185828601611f95565b925050602083013567ffffffffffffffff81111561211e57600080fd5b61212a85828601611ffe565b9150509250929050565b6000806040838503121561214757600080fd5b600061215585828601611f95565b925050602061216685828601612028565b9150509250929050565b60006020828403121561218257600080fd5b600061219084828501611fe9565b91505092915050565b6000806000606084860312156121ae57600080fd5b600084013567ffffffffffffffff8111156121c857600080fd5b6121d486828701611ffe565b93505060206121e586828701612028565b92505060406121f686828701611fd4565b9150509250925092565b60006020828403121561221257600080fd5b600061222084828501612028565b91505092915050565b60006020828403121561223b57600080fd5b60006122498482850161203d565b91505092915050565b6000806040838503121561226557600080fd5b600061227385828601612028565b925050602061228485828601612028565b9150509250929050565b612297816127fe565b82525050565b6122a681612822565b82525050565b60006122b782612727565b6122c18185612732565b93506122d1818560208601612867565b6122da81612a33565b840191505092915050565b60006122f2601f83612732565b91506122fd82612a44565b602082019050919050565b6000612315601283612732565b915061232082612a6d565b602082019050919050565b6000612338601383612732565b915061234382612a96565b602082019050919050565b600061235b600e83612732565b915061236682612abf565b602082019050919050565b600061237e602383612732565b915061238982612ae8565b604082019050919050565b60006123a1601e83612732565b91506123ac82612b37565b602082019050919050565b60006123c4600d83612732565b91506123cf82612b60565b602082019050919050565b60006123e7601183612732565b91506123f282612b89565b602082019050919050565b6124068161284e565b82525050565b6000602082019050612421600083018461228e565b92915050565b600060608201905061243c600083018661228e565b612449602083018561228e565b61245660408301846123fd565b949350505050565b6000604082019050612473600083018561228e565b61248060208301846123fd565b9392505050565b600060208201905061249c600083018461229d565b92915050565b600060208201905081810360008301526124bc81846122ac565b905092915050565b600060808201905081810360008301526124de81876122ac565b905081810360208301526124f281866122ac565b9050818103604083015261250681856122ac565b9050612515606083018461229d565b95945050505050565b600060a082019050818103600083015261253881886122ac565b9050818103602083015261254c81876122ac565b9050818103604083015261256081866122ac565b905061256f606083018561229d565b61257c608083018461228e565b9695505050505050565b6000602082019050818103600083015261259f816122e5565b9050919050565b600060208201905081810360008301526125bf81612308565b9050919050565b600060208201905081810360008301526125df8161232b565b9050919050565b600060208201905081810360008301526125ff8161234e565b9050919050565b6000602082019050818103600083015261261f81612371565b9050919050565b6000602082019050818103600083015261263f81612394565b9050919050565b6000602082019050818103600083015261265f816123b7565b9050919050565b6000602082019050818103600083015261267f816123da565b9050919050565b600060208201905061269b60008301846123fd565b92915050565b60006040820190506126b660008301856123fd565b81810360208301526126c881846122ac565b90509392505050565b60006126db6126ec565b90506126e782826128cc565b919050565b6000604051905090565b600067ffffffffffffffff82111561271157612710612a04565b5b61271a82612a33565b9050602081019050919050565b600081519050919050565b600082825260208201905092915050565b600061274e8261284e565b91506127598361284e565b9250827fffffffffffffffffffffffffffffffffffffffffffffffffffffffffffffffff0382111561278e5761278d612977565b5b828201905092915050565b60006127a48261284e565b91506127af8361284e565b9250826127bf576127be6129a6565b5b828204905092915050565b60006127d58261284e565b91506127e08361284e565b9250828210156127f3576127f2612977565b5b828203905092915050565b60006128098261282e565b9050919050565b600061281b8261282e565b9050919050565b60008115159050919050565b600073ffffffffffffffffffffffffffffffffffffffff82169050919050565b6000819050919050565b82818337600083830152505050565b60005b8381101561288557808201518184015260208101905061286a565b83811115612894576000848401525b50505050565b600060028204905060018216806128b257607f821691505b602082108114156128c6576128c56129d5565b5b50919050565b6128d582612a33565b810181811067ffffffffffffffff821117156128f4576128f3612a04565b5b80604052505050565b60006129088261284e565b91507fffffffffffffffffffffffffffffffffffffffffffffffffffffffffffffffff82141561293b5761293a612977565b5b600182019050919050565b60006129518261284e565b915061295c8361284e565b92508261296c5761296b6129a6565b5b828206905092915050565b7f4e487b7100000000000000000000000000000000000000000000000000000000600052601160045260246000fd5b7f4e487b7100000000000000000000000000000000000000000000000000000000600052601260045260246000fd5b7f4e487b7100000000000000000000000000000000000000000000000000000000600052602260045260246000fd5b7f4e487b7100000000000000000000000000000000000000000000000000000000600052604160045260246000fd5b6000601f19601f8301169050919050565b7f506c61796572206973206e6f74204f776e656420627920746865205465616d00600082015250565b7f506c61796572204e6f742050726573656e740000000000000000000000000000600082015250565b7f506c61796572204e6f742053656c6c61626c6500000000000000000000000000600082015250565b7f4d69736d61746368207072696365000000000000000000000000000000000000600082015250565b7f5465616d204e6f742052656769737465726564202d20436f6e74616374204f7760008201527f6e65720000000000000000000000000000000000000000000000000000000000602082015250565b7f536561726368696e6720506c61796572206e6f7420417661696c61626c650000600082015250565b7f416c7265616479206f776e656400000000000000000000000000000000000000600082015250565b7f4e6f7420456e6f75676820546f6b656e73000000000000000000000000000000600082015250565b612bbb816127fe565b8114612bc657600080fd5b50565b612bd281612810565b8114612bdd57600080fd5b50565b612be981612822565b8114612bf457600080fd5b50565b612c008161284e565b8114612c0b57600080fd5b5056fea26469706673582212202aea0dde39fba928754987a5cb0c2514154bf229e88f058d0e700acb1c9c69db64736f6c63430008030033",
  "immutableReferences": {},
  "source": "pragma solidity ^0.8.0;\n\nimport \"./FantasyEPLToken.sol\";\n\ncontract FantasyLeague{\n    address payable owner;\n\n    FantasyEPLToken token;\n\n    constructor(address _token){\n        owner = payable(msg.sender);\n        addTeam(owner, 'Team1');\n        token = FantasyEPLToken(_token);\n    }\n\n    //Only Owner\n    modifier onlyOwner(){\n        require(msg.sender == owner);\n        _;\n    }\n\n    function getOwner() public view returns(address){\n       return owner;\n    }\n\n\n    function getAllowedMarketPlace() public view returns(address){\n        return token.getAllowedMarketPlace();\n    }\n\n    function getTokenBalance() public view returns(string memory){\n        return toString(token.balanceOf(msg.sender));\n    }\n\n    //Strcuture for Teams \n    //Each User who are authorized to buy and sell is a Team\n    struct Teams{\n        uint id;\n        string name;\n        uint[] ownedPlayers;\n    }\n\n    uint teamsCount = 0;\n    //List of Participating Teams\n    mapping(address => Teams) public teams;\n\n    function addTeam(address teamAddress, string memory _name) public onlyOwner{\n        uint[] memory ownedPlayers;\n        teams[teamAddress] = Teams(teamsCount+1, _name, ownedPlayers);\n        teamsCount = teamsCount + 1;\n    }\n\n    function assignPlayersToTeam(address payable teamAddress, uint playerID) public onlyOwner{\n        checkIfTeamRegistered(teamAddress);\n        teams[teamAddress].ownedPlayers.push(playerID);\n        players[playerID].ownedBy = teamAddress;\n    }\n\n    struct Player{\n        uint id;\n        string name;\n        uint price;\n        bool is_sellable;\n        address payable ownedBy;\n    }\n\n    uint public playersCount = 0;\n\n    mapping(uint => Player) players;\n    \n    function checkIfTeamRegistered(address teamAddress) internal view{\n        if(teams[teamAddress].id == 0){\n            revert(\"Team Not Registered - Contact Owner\");\n        }\n    }\n\n    function checkIfPlayerIsInTeam(address teamAddress, uint playerID) internal view{\n        checkIfTeamRegistered(teamAddress);\n        checkIfPlayerExist(playerID);\n        Teams memory team = teams[teamAddress];\n        \n        bool playerPresentInTeam = false;\n        for(uint i = 0; i < team.ownedPlayers.length; i++){\n            if(team.ownedPlayers[i] == playerID){\n                playerPresentInTeam = true;\n            }\n        }\n\n        if(!playerPresentInTeam){\n            revert(\"Player is not Owned by the Team\");\n        }\n        \n    }\n\n    function checkIfPlayerExist(uint playerID) internal view{\n        if(playerID >= playersCount){\n            revert(\"Player Not Present\");\n        }\n    }\n\n    function addPlayer(string memory name, uint price, bool is_sellable) public onlyOwner{   \n        players[playersCount] = Player(playersCount, name, price, is_sellable, owner);\n        assignPlayersToTeam(owner, playersCount);\n        playersCount = playersCount + 1;\n    }\n\n    function setPlayerPrice(uint playerID, uint price) public{\n        checkIfPlayerIsInTeam(msg.sender, playerID);\n        players[playerID].price = price;\n    }\n\n    function togglePlayerSellable(uint playerID) public{\n        checkIfPlayerIsInTeam(msg.sender, playerID);\n        players[playerID].is_sellable = !players[playerID].is_sellable;\n    }\n\n    function checkIfPlayerSellable(uint playerID) internal view returns(bool){\n        checkIfPlayerExist(playerID);\n        if(!players[playerID].is_sellable){\n            revert(\"Player Not Sellable\");\n        }\n        return players[playerID].is_sellable;\n    }\n\n    function checkTokenBeforePurchase(uint amount) internal view{\n        if(amount > token.balanceOf(msg.sender)){\n            revert(\"Not Enough Tokens\");\n        }\n    }\n\n    function sendToken(address to, uint amount) public{\n        token.approve(msg.sender,amount);\n        token.transferFrom(msg.sender, to, amount);\n    }\n\n    function buyPlayer(uint playerID, uint amount) public payable{\n        checkIfPlayerExist(playerID);\n        checkifPlayerAlreadyOwned(playerID);\n        //checkIfPlayerIsInTeam(msg.sender, playerID);\n        checkIfPlayerSellable(playerID);\n\n        Player memory player = players[playerID];\n\n        address payable seller = player.ownedBy;\n        // uint amount;\n        // amount = msg.value;\n        uint price;\n        price = player.price;\n        if (amount != price){\n            revert(\"Mismatch price\");\n        }\n\n        checkTokenBeforePurchase(amount);\n\n        sendToken(seller, amount);\n        //seller.transfer(msg.value);\n\n        if(seller != owner){\n            //owner.transfer(price/10);\n            removePlayerFromSeller(playerID, seller);\n        }\n\n        addPlayerToSelf(playerID);\n\n        \n    }\n    function checkifPlayerAlreadyOwned(uint playerID) internal view{\n        Player storage player = players[playerID];\n        if (player.ownedBy == (msg.sender)){\n            revert(\"Already owned\");\n        }\n    }\n    function addPlayerToSelf(uint playerID) internal {\n        Player storage player = players[playerID];\n        player.ownedBy = payable(msg.sender);\n        teams[msg.sender].ownedPlayers.push(playerID);\n    }\n\n    function removePlayerFromSeller(uint playerID, address payable seller) internal {\n        \n        uint[] memory ownedPlayers = teams[seller].ownedPlayers;\n        uint[] memory updatedOwnedPlayers;\n        teams[seller].ownedPlayers = updatedOwnedPlayers;\n\n        for(uint i = 0; i < ownedPlayers.length; i++){\n            if(ownedPlayers[i] != playerID){\n                teams[seller].ownedPlayers.push(ownedPlayers[i]);\n            }\n        }\n\n    }\n\n    function getMyPlayersCount() public view returns(string memory){\n        return toString(teams[msg.sender].ownedPlayers.length);\n    }\n\n    function checkMyPlayerIndex(uint index) internal view returns(bool){\n        checkIfTeamRegistered(msg.sender);\n        if(index >= teams[msg.sender].ownedPlayers.length){\n            return false;\n        }\n        return true;\n    }\n\n    function getMyPlayer(uint index) public view returns(string memory, string memory, string memory, bool){\n        checkIfTeamRegistered(msg.sender);\n        require(checkMyPlayerIndex(index), \"Searching Player not Available\");\n        \n        Player memory player = players[teams[msg.sender].ownedPlayers[index]];\n        return (toString(player.id), player.name, toString(player.price), player.is_sellable);\n    }\n\n    function getAllPlayersCount() public view returns(string memory){\n        return toString(playersCount);\n    }\n\n    function getPlayer(uint index) public view returns(string memory, string memory, string memory, bool, address){\n        Player memory player = players[index];\n        return (toString(player.id), player.name, toString(player.price), player.is_sellable, player.ownedBy);\n    }\n\n    function checkIfTeamExist() external view returns(bool){\n        if(teams[msg.sender].id == 0){\n            return false;\n        }\n        return true;\n    }\n\n    function getMyTeamDetails() public view returns(uint, string memory){\n        checkIfTeamRegistered(msg.sender);\n        Teams memory myTeam = teams[msg.sender];\n        return (myTeam.id, myTeam.name);\n    }\n\n     function toString(uint256 value) internal pure returns (string memory) {\n        // https://github.com/oraclize/ethereum-api/blob/b42146b063c7d6ee1358846c198246239e9360e8/oraclizeAPI_0.4.25.sol\n\n        if (value == 0) {\n            return \"0\";\n        }\n        uint256 temp = value;\n        uint256 digits;\n        while (temp != 0) {\n            digits++;\n            temp /= 10;\n        }\n        bytes memory buffer = new bytes(digits);\n        while (value != 0) {\n            digits -= 1;\n            buffer[digits] = bytes1(uint8(48 + uint256(value % 10)));\n            value /= 10;\n        }\n        return string(buffer);\n    }\n}",
  "sourcePath": "/home/sai/Downloads/FifaTransferMarket/fantasyLeague-contract/contracts/FantasyLeague.sol",
  "compiler": {
    "name": "solc",
    "version": "0.8.3+commit.8d00100c.Emscripten.clang"
  },
  "schemaVersion": "3.4.6",
  "updatedAt": "2022-05-08T16:53:17.961Z",
  "networkType": "ethereum",
  "devdoc": {
    "kind": "dev",
    "methods": {},
    "version": 1
  },
  "userdoc": {
    "kind": "user",
    "methods": {},
    "version": 1
  }
}